:100000000C943E000C945B000C945B000C945B0021
:100010000C945B000C945B000C945B000C945B00F4
:100020000C945B000C945B000C945B000C945B00E4
:100030000C945B000C945B000C945B000C945B00D4
:100040000C945B000C945B000C947E000C945B00A1
:100050000C945B000C945B000C945B000C945B00B4
:100060000C945B000C945B000C945B000C945B00A4
:100070000C945B000C945B000C945B0011241FBE7D
:10008000CFEFD0E1DEBFCDBF11E0A0E0B1E0ECE505
:10009000F2E002C005900D92A832B107D9F711E045
:1000A000A8E2B1E001C01D92AC32B107E1F70E94B5
:1000B000CA000C942C010C940000882369F070E0B5
:1000C00090E021E031E0F901E90FF11DE0817E0FC0
:1000D0009F5F8917C1F702C070E080E0815021E086
:1000E00031E0F901E80FF11D8081FA018083270FCB
:1000F000311DF901E60FF11D808108951F920F92C5
:100100000FB60F9211242F933F934F935F936F93EA
:100110007F938F939F93AF93BF93EF93FF93CF936F
:10012000DF930F92CDB7DEB7198280912A018F5FDE
:1001300080932A01909100018917C1F410922A013D
:100140008091290160912B01AE014F5F5F4F0E94AA
:100150005D0085B980912B018F5F80932B01909179
:100160002B018981891710F410922B010F90DF91D8
:10017000CF91FF91EF91BF91AF919F918F917F911F
:100180006F915F914F913F912F910F900FBE0F9004
:100190001F9018958FE081B912B884B915B81AB8B4
:1001A00085E085BD81E080936E00789424E030E0A6
:1001B00099B1907489B180724F9B09C04091000140
:1001C000443028F0409100014150409300019923B0
:1001D00049F0909100019C3328F4909100019F5FB9
:1001E00090930001882349F08091290190E00196C5
:1001F000B9010E9405018093290180B184FFD8CF05
:1002000012B815B880E090E0089597FB092E0726F4
:100210000AD077FD04D00CD006D000201AF47095D7
:1002200061957F4F0895F6F7909581959F4F0895BA
:10023000AA1BBB1B51E107C0AA1FBB1FA617B7070C
:1002400010F0A61BB70B881F991F5A95A9F7809528
:0C0250009095BC01CD010895F894FFCFFB
:10025C0003080102040810204080100103070F1F3F
:10026C003F7FFFFEFCF8F0E0C080000880402010CB
:08027C00080402010200FF006A
:00000001FF
