:100000000C943E000C945B000C945B000C945B0021
:100010000C945B000C945B000C945B000C945B00F4
:100020000C945B000C945B000C945B000C945E01E0
:100030000C945B000C94C5010C945B000C94D301F0
:100040000C945B000C945B000C9482000C945B009D
:100050000C945B000C945B000C945B000C945B00B4
:100060000C945B000C945B000C945B000C945B00A4
:100070000C945B000C945B000C945B0011241FBE7D
:10008000CFEFD0E1DEBFCDBF11E0A0E0B1E0E0EA0C
:10009000F8E002C005900D92A630B107D9F711E043
:1000A000A6E0B1E001C01D92A931B107E1F70E94BD
:1000B000E1010C944E040C9400000895F894109201
:1000C0008000E1E8F0E088E08083109285001092E3
:1000D000840087E998E9909389008093880085E0FF
:1000E000808382E080936F0078940895F89416BC22
:1000F00085E085BD81E080936E007894089510922C
:10010000810008951F920F920FB60F9211248F93C2
:100110009F93EF93FF93809112018823F1F58091D3
:100120000901833009F0BCC01092090180911101CE
:10013000813099F0813030F08230D1F0833009F095
:10014000AFC021C081E080931101169A88B188B9AF
:1001500085B185B985B185B9A3C082E080931101CD
:1001600082B182B988B188B92D9A85B185B998C014
:1001700083E08093110182B182B9469A85B185B935
:1001800085B185B98DC01092110182B182B988B153
:1001900088B985B185B92F9A83C0809112018230C8
:1001A00009F04BC080910901803109F079C01092AB
:1001B00009018091060190910801981729F481E0C6
:1001C000809312011092080180910801E0911301BF
:1001D000F0911401E80FF11D8081882341F4169AF3
:1001E00088B188B985B185B985B185B920C08081CC
:1001F000813041F482B182B988B188B92D9A85B134
:1002000085B915C08081823041F482B182B9469AA5
:1002100085B185B985B185B90AC08081833039F44B
:1002200082B182B988B188B985B185B92F9A809198
:1002300008018F5F8093080133C0809112018330E1
:10024000B9F480910901803159F580910701882323
:1002500031F410920901469A2F9A169A21C01092F1
:10026000090182B182B988B188B985B185B918C050
:10027000809112018430A1F480910901803181F4D0
:100280001092090180910701882321F4469A2D9A42
:10029000169A06C082B182B988B188B985B185B98C
:1002A000809109018F5F80930901FF91EF919F91E8
:1002B0008F910F900FBE0F901F9018951F920F9265
:1002C0000FB60F9211242F933F934F935F936F9329
:1002D0007F938F939F93AF93BF93EF93FF938091FF
:1002E00010018F5F8093100180911201882339F4EF
:1002F00080B180710E945D0080930B0135C08091B8
:100300001201823041F080911201843021F08091FD
:100310001201833039F480B180720E945D008093B5
:100320000A0122C0809112018130F1F480B1827003
:100330000E945D0080930F0180B184700E945D0077
:1003400080930E0180B181700E945D0080930D0149
:1003500080B188700E945D0080930C0180B1807232
:100360000E945D0080930A01FF91EF91BF91AF91D0
:100370009F918F917F916F915F914F913F912F91BD
:100380000F900FBE0F901F9018951F920F920FB6EF
:100390000F9211248F938FEF8BB98F910F900FBE17
:1003A0000F901F9018951F920F920FB60F92112465
:1003B0008F938FE08BB98F910F900FBE0F901F908E
:1003C000189580E281B980EA84B980E487B98FEF1B
:1003D0008AB91BB81092B20084E08093B10081E02A
:1003E000809370007894109212011092060110927E
:1003F0000801809113019091140160910601262F4C
:100400002F5F2093060170E00E9414029093140164
:100410008093130120910601820F911D20911001FC
:100420002370FC012083E5CFA2E0B0E0EAE1F2E036
:100430000C941D048C01009729F4CB010E94E80262
:100440008C01B8C0DC01A60FB71FFC013297AE17B4
:10045000BF0708F4ADC02081318126173707B0F0FF
:100460002530310508F4A6C0C901049786179707FF
:1004700008F4A0C022503040261B370B2D933D932B
:10048000CD01718360830E947E0394C06B01C21A08
:10049000D30A5C01A20EB31EE0911701F09118017E
:1004A00040E050E08824992449C0EA15FB05E1F5B5
:1004B000E080F180C70102968C159D05A8F1A70187
:1004C0004C195D09CA0102960F2EFEEFCF2EFFEFE9
:1004D000DF2EF02DC00ED11E8530910578F082817F
:1004E000938113969C938E93129711965C934E93DF
:1004F000F601718360839A2F8B2F0AC0C90102967F
:100500008E0D9F1DD60111969C938E9392818381AF
:100510008114910421F0F401928383834BC0909362
:1005200017018093180146C08081918148175907AF
:1005300008F4AC01828193814F01FC01309709F0EE
:10054000B4CF80911501909116018A159B05E9F4AD
:1005500046175707D0F48091000190910101009750
:1005600041F48DB79EB72091040130910501821BA3
:10057000930BA817B907E0F4B0931601A0931501E7
:10058000F80132977183608315C0CB0129833A83C8
:100590000E94E8027C0129813A81009749F0B80164
:1005A000A9010E94DF02C8010E947E03870102C0E8
:1005B00000E010E0C8012296ECE00C943904FB0145
:1005C000DC0102C001900D9241505040D8F70895CF
:1005D000CF93DF93AC018230910510F442E050E0FC
:1005E000E0911701F091180120E030E0A0E0B0E0C8
:1005F00024C08081918184179507D0F084179507D6
:1006000071F482819381109729F013969C938E93B5
:1006100012972CC0909318018093170127C02115C1
:10062000310519F08217930718F49C01BD01EF0101
:1006300092818381DF01E92FF82F3097D1F62115C0
:100640003105F9F0C901841B950B8430910580F4C4
:100650008A819B816115710521F0FB01938382835F
:1006600004C09093180180931701FE01329642C096
:10067000FE01E80FF91F41935193029799838883F4
:1006800039C08091150190911601009741F4809135
:10069000020190910301909316018093150120911E
:1006A0000001309101012115310541F42DB73EB70C
:1006B0008091040190910501281B390BE0911501EF
:1006C000F0911601E217F30798F42E1B3F0B241745
:1006D000350770F0CA0102962817390748F08E0FC7
:1006E0009F1F90931601809315014193519302C06F
:1006F000E0E0F0E0CF01DF91CF9108950F931F93D9
:10070000CF93DF939C01009709F48CC0DC01129712
:1007100013961C921E921297609117017091180106
:100720006115710589F48D919C911197820F931F2A
:1007300020911501309116012817390769F5B093FA
:100740001601A09315016EC0FB0140E050E001C00E
:10075000FC01EA17FB0730F482819381AF01009717
:10076000B9F71FC0E9012297FB83EA830881198149
:10077000C901800F911F8E179F0759F480819181C5
:10078000800F911F029699838883828193819B8336
:100790008A834115510529F4B0931801A0931701DC
:1007A00041C0FA01B383A283C191D191EC0FFD1F27
:1007B000AE17BF0781F4F901929182918C0F9D1FB2
:1007C0000296DA0111969C938E93828193811396FF
:1007D0009C938E931297E0E0F0E002C0FB01BC0115
:1007E000DB0112968D919C9113970097B9F7CB017D
:1007F00002962D913C911197820F931F2091150124
:10080000309116012817390769F4309729F41092AE
:1008100018011092170102C0138212827093160100
:1008200060931501DF91CF911F910F9108952F9241
:100830003F924F925F926F927F928F929F92AF9270
:10084000BF92CF92DF92EF92FF920F931F93CF93BD
:10085000DF93CDB7DEB7CA1BDB0B0FB6F894DEBF54
:100860000FBECDBF09942A88398848885F846E847A
:100870007D848C849B84AA84B984C884DF80EE80C4
:10088000FD800C811B81AA81B981CE0FD11D0FB6CD
:10089000F894DEBF0FBECDBFED010895F894FFCFF1
:0608A00000001901200018
:00000001FF
