:100000000C943E000C945B000C945B000C945B0021
:100010000C945B000C945B000C945B000C945B00F4
:100020000C945B000C945B000C945B000C94D3006C
:100030000C945B000C94DD000C945B000C94EB00C2
:100040000C945B000C945B000C9488000C945B0097
:100050000C945B000C945B000C945B000C945B00B4
:100060000C945B000C945B000C945B000C945B00A4
:100070000C945B000C945B000C945B0011241FBE7D
:10008000CFEFD0E1DEBFCDBF11E0A0E0B1E0ECEFFB
:10009000F1E002C005900D92A030B107D9F711E050
:1000A000A0E0B1E001C01D92A730B107E1F70E94C6
:1000B000F9000C94FC000C940000F89416BC85E048
:1000C00085BD81E080936E0078940895F894109235
:1000D0008000E1E8F0E088E08083109285001092D3
:1000E000840087E998E9909389008093880085E0EF
:1000F000808382E080936F0078940895F89416BC12
:1001000085E085BD81E080936E0078940895089520
:100110001F920F920FB60F9211248F9380910601B8
:100120008823D9F5809100018330B9F51092000140
:1001300080910501813091F0813028F08230C9F042
:10014000833059F521C081E080930501169A88B16A
:1001500088B985B185B985B185B91FC082E0809322
:10016000050182B182B988B188B92D9A85B185B966
:1001700014C083E08093050182B182B9469A85B1AB
:1001800085B985B185B909C01092050182B182B9DE
:1001900088B188B985B185B92F9A8F910F900FBE1C
:1001A0000F901F9018951F920F920FB60F92112467
:1001B0000F900FBE0F901F9018951F920F920FB6C1
:1001C0000F9211248F938FEF8BB98F910F900FBEE9
:1001D0000F901F9018951F920F920FB60F92112437
:1001E0008F938FE08BB98F910F900FBE0F901F9060
:0C01F00018950E945D00FFCFF894FFCF2F
:00000001FF
