:100000000C943E000C945B000C945B000C945B0021
:100010000C945B000C945B000C945B000C945B00F4
:100020000C945B000C945B000C945B000C948200BD
:100030000C945B000C948C000C945B000C949A0064
:100040000C945B000C945B000C9478000C945B00A7
:100050000C945B000C945B000C945B000C945B00B4
:100060000C945B000C945B000C945B000C945B00A4
:100070000C945B000C945B000C945B0011241FBE7D
:10008000CFEFD0E1DEBFCDBF11E0A0E0B1E0EAE507
:10009000F1E002C005900D92A030B107D9F711E050
:1000A000A0E0B1E001C01D92A130B107E1F70E94CC
:1000B000A8000C94AB000C940000F89416BC25E04A
:1000C00025BD81E080936E0010928000E1E8F0E0B1
:1000D00088E0808387E998E990938900809388007D
:1000E000208382E080936F007894089508950895A6
:1000F0001F920F920FB60F9211240F900FBE0F9008
:100100001F9018951F920F920FB60F9211240F9007
:100110000FBE0F901F9018951F920F920FB60F925F
:1001200011248F938FEF8BB98F910F900FBE0F908B
:100130001F9018951F920F920FB60F9211248F9354
:100140008FE08BB98F910F900FBE0F901F90189575
:0A0150000E945D00FFCFF894FFCF7E
:00000001FF
